:020000040800F2
:10000000300900204D1B00082119000823190008A1
:10001000271900082B1900082F19000800000000FC
:10002000000000000000000000000000331900087C
:1000300035190008000000003719000839190008B8
:10004000671B0008671B0008671B0008671B000888
:10005000671B0008671B0008671B0008671B000878
:10006000671B0008671B0008671B0008671B000868
:10007000671B0008671B0008671B0008671B000858
:10008000671B0008671B0008671B0008F75900087A
:10009000671B0008671B0008671B0008671B000838
:1000A000671B0008671B0008671B0008671B000828
:1000B0009D5F0008E15C0008671B0008671B0008E3
:1000C000671B0008671B0008671B0008671B000808
:1000D000671B0008671B0008AD490008671B000884
:1000E000671B0008671B0008671B0008671B0008E8
:1000F000671B0008671B0008671B0008671B0008D8
:10010000671B0008671B0008BF5D0008671B00082D
:10011000671B0008671B0008671B0008671B0008B7
:10012000671B0008671B0008671B0008671B0008A7
:10013000671B0008671B0008671B0008671B000897
:10014000671B0008671B0008671B0008671B000887
:1001500099620008671B0008671B0008671B0008FE
:10016000671B0008671B0008671B0008671B000867
:10017000671B0008671B0008671B0008671B000857
:10018000671B0008671B000800F002F800F03CF84D
:100190000AA090E8000C82448344AAF10107DA45E2
:1001A00001D100F031F8AFF2090EBAE80F0013F0F8
:1001B000010F18BFFB1A43F0010318476C7C0000C5
:1001C0008C7C0000103A24BF78C878C1FAD8520756
:1001D00024BF30C830C144BF04680C6070470000C1
:1001E0000023002400250026103A28BF78C1FBD840
:1001F000520728BF30C148BF0B6070471FB507F0DA
:100200002CFD1FBD10B510BD06F084F81146FFF798
:10021000F5FF00F009F806F0A2F803B4FFF7F2FFCB
:1002200003BC04F029FB00002DED0C8BA82004F08A
:10023000DDF84FF4A06001F0A9FC05F0D4FB4FF409
:10024000E13004F063FB40F2CF7740F2E73805F08D
:10025000FCFC05F057FF002005F090FC002005F0A5
:1002600094FC05F0A5FD05F092FE4FF47A7241462C
:10027000384605F0F5FC0320FE490870012048705F
:1002800040F201320221FB4805F0C3FB012004F0DB
:100290000FF90820F74908700020487040F2013239
:1002A0000221F44805F0B5FB012004F001F96420B7
:1002B00004F0FEF80120EF49487040F201320221BB
:1002C000EC4805F0A6FB012004F0F2F80620E9490D
:1002D00008700120487040F201320221E54805F023
:1002E00098FB012004F0E4F80220E24908700120A4
:1002F000487040F201320221DE4805F08AFB0120FD
:1003000004F0D6F80420DB4908700020487040F261
:1003100001320221D74805F07CFB012004F0C8F827
:100320000520D44908700120487040F201320221B2
:10033000D04805F06EFB012004F0BAF80120CD4949
:100340000870487040F201320221CA4805F061FB92
:10035000012004F0ADF80820C6490870002048705C
:1003600040F201320221C34805F053FB642004F03F
:100370009FF80120BF49487040F201320221BD4878
:1003800005F047FB012004F093F80720B9490870F5
:100390000020487040F201320221B64805F039FBD6
:1003A000642004F085F80120B249487040F201321F
:1003B0000221B04805F02DFB012004F079F841F24C
:1003C000883004F075F80820AA49087000204870A9
:1003D00040F201320221A74805F01BFB642004F023
:1003E00067F80120A349487040F201320221A14878
:1003F00005F00FFB41F2883004F05AF86FF013005B
:1004000005F0BCFB9FED9C0AB0EE408A4FF4806083
:100410009A49C8808880488008805CE19748C088F5
:10042000A0F58060C0EB001040004FF4257190FBF8
:10043000F1F000EE100AB8EEC00A914880ED000A13
:100440008E488088A0F58060C0EB0010400090FBD3
:10045000F1F000EE100AB8EEC00A8A4880ED000AFA
:1004600086480088A0F58060404200EB8000800054
:1004700090FBF1F000EE100AB8EEC00A824880ED61
:10048000000A804890ED000AF0EE000A80EE201A83
:1004900011EE109A484607F06FFB41EC1A0B7848B2
:1004A00090ED000AFFEE000A20EE200A10EE101A6E
:1004B000084607F061FB9FED750B53EC102B07F01E
:1004C0009BF89FED740B53EC102B06F0E3FE53ECFE
:1004D0001A2B06F037FE06F003FE704908606948E3
:1004E00090ED000AFFEE000A20EE200A084680ED9B
:1004F000010A644890ED000AF0EE000A80EE201A2E
:1005000011EE109A484607F037FB41EC1A0B5C4895
:10051000006807F031FB9FED5D0B53EC102B07F0EB
:100520006BF89FED5C0B53EC102B06F0B3FE53EC15
:100530001A2B06F007FE06F0D3FD58498860524892
:1005400090ED000A564880ED000A4F4890ED000AF1
:10055000534880ED010A4C4890ED000A504880ED68
:10056000020A03F0C5FF4F4991ED000ABDEEC00A33
:1005700010EE100A002801DB014600E0414200EEC7
:10058000101AB8EEC00AB4EEC80AF1EE10FA11DD86
:10059000444991ED000ABDEEC00A10EE100A002891
:1005A00001DB014600E0414200EE101AB8EEC00A3D
:1005B000B0EE408A3B4991ED010ABDEEC00A10EE53
:1005C000100A002801DB014600E0414200EE101A4B
:1005D000B8EEC00AB4EEC80AF1EE10FA11DD3149E6
:1005E00091ED010ABDEEC00A10EE100A002801DBF1
:1005F000014600E0414200EE101AB8EEC00AB0EE2B
:10060000408A284991ED020ABDEEC00A10EE100A98
:10061000002801DB014600E0414200EE101AB8EE6E
:10062000C00AB4EEC80AF1EE10FA11DD1D4991EDD1
:10063000020ABDEEC00A10EE100A002801DB0146D6
:1006400000E0414200EE101AB8EEC00AB0EE408A57
:100650009FED150AB4EEC08AF1EE10FA34DD9FED7D
:10066000120AC0EE088A0F4890ED000A20EE280A10
:100670001CE000001000002000000000B602002076
:1006800004000020080000200C00002083C0CAA144
:1006900045B6FB3F0000000000000040E8000020DD
:1006A000F40000200C01002000002F4480ED000A1F
:1006B00090ED010A20EE280A80ED010A90ED020A71
:1006C00020EE280A80ED020A04F0A2F8FC48007A25
:1006D000012800D100E0A1E600BF0120F94908602F
:1006E000B7EE002ADFEDF81A1FED1D1A5FED1E0AA6
:1006F000B6EE000AF54804F047FAB7EE002ADFED3F
:10070000F41A1FED231A5FED240AB2EE040AF14831
:1007100004F03AFA9FEDF01ADFEDF00A1FED2A0A15
:10072000EF4804F03DFA00BFE548007A0128FBD10C
:10073000EC49086074E0EC480068E0B1E34804F07C
:1007400036FA04F08CFBB0EE409AE04804F0BDFDB0
:10075000DC48006800EB4000E1490C3901EB800007
:10076000D0ED020AB0EE600ADA4804F0A9FF03F007
:10077000BFFE04F04DF8D34B1B6803EB4303DFF8D7
:1007800060C3ACF10C0C0CEB830393ED000AD74B68
:10079000D3ED000A30EE600ABDEEC00A10EE102A5A
:1007A000002A01DB134600E053420A2B38DAC54B1E
:1007B0001B6803EB4303DFF828C3ACF10C0C0CEB14
:1007C000830393ED010AC94BD3ED010A30EE600AB1
:1007D000BDEEC00A10EE101A002901DB0B4600E046
:1007E0004B420A2B1CDAB74B1B6803EB4303DFF8C1
:1007F000F0C2ACF10C0C0CEB830393ED020ABB4B83
:10080000D3ED020A30EE600ABDEEC00A10EE100A07
:10081000002801DB034600E04342022B00DA00E03F
:1008200089E700BF0020AF49086004F00DF80120FF
:10083000A44908600920AE4908600025B7EE002AE7
:10084000DFEDAC1A1FED741A5FED750AB7EE080AFA
:100850009E4804F099F9B7EE002ADFEDA71A1FEDC4
:100860007A1A5FED7B0AB2EE0E0A9A4804F08CF910
:10087000BBEE0F1ADFEDA10A1FED750A984804F0D0
:100880008FF91FED831ADFED9E0A9FED9E0A9448B3
:100890000C3004F085F91FED881ADFED9B0A9FEDFF
:1008A0009B0A8F48183004F07BF91FED8D1ADFED9D
:1008B000940A9FED970A8A48243004F071F99FED5D
:1008C000951ADFED950A9FED950A8548303004F0C2
:1008D00067F99FED931ADFED930A9FED930A804825
:1008E0003C3004F05DF99FED911ADFED910A9FED28
:1008F000910A7B48483004F053F99FED8C1ADFEDE4
:100900008E0A9FED8E0A7648543004F049F900BFF4
:100910006B48007A0328FBD14FF480606849C88097
:100920008880488008804FF4AF624146384605F021
:1009300097F940F6B83003F0BBFD002005F01EF932
:10094000C5E169480068002866D05E48006805284F
:1009500019D11FEDB70A7A4880ED020A80ED010A2D
:1009600080ED000A1FEDBC0A584804F0AEFC03F00D
:10097000BFFD03F07CFE04F0CDFD03F049FF002035
:100980005949086048E0514804F011F94D480068A1
:1009900002280ED104F0C1FBB0EE409A4B4804F09F
:1009A00094FC04F05CFBB0EE409A4A4804F088FEE8
:1009B00015E004F054FAB0EE409A444804F085FC87
:1009C0004048006800EB400045490C3901EB8000CD
:1009D000D0ED020AB0EE600A3E4804F071FE03F06A
:1009E00087FD38480068032805D1DFED430AB7EEDC
:1009F000000A04F015FC33480068042805D1DFED37
:100A0000510AB6EE000A04F00BFC04F083FD03F07B
:100A1000FFFE0020344908602A480068052822D1DA
:100A20002848006800EB40002D490C3901EB80009C
:100A300090ED010A2D48D0ED010A30EE600ADFED9D
:100A4000420AB4EEE00AF1EE10FA00DD0125274873
:100A500090ED020ADFED3D0AB4EEE00AF1EE10FA85
:100A600000D201258EE017480068052817DA1548DE
:100A7000006800EB40001A490C3901EB800090ED52
:100A8000000A1A48D0ED000A30EE600ADFED300AA5
:100A9000B4EEE00AF1EE10FA74D2012572E00948D2
:100AA0000068082858D1114890ED010ADFED290AA5
:100AB000B4EEE00AF1EE10FA64D2012562E0000023
:100AC000B60200205C0000200000C8429800002010
:100AD00000008C42C0000020000000C20000C8C21C
:100AE00048010020180000205000002018010020BC
:100AF0000000002000007A440000C84300001BC42E
:100B0000004035C400209945000043C40060B8454A
:100B10000090E2450000B4C20080BBC400E0F6458E
:100B20000000EAC200002FC50050F5450000ECC2ED
:100B3000008089C50030F2450060EAC500E0DD456F
:100B4000F400002000009643000048C3000070C27B
:100B50000000484200409CC5FE48006800EB400091
:100B6000FD4901EB800090ED010AFC48D0ED010A3F
:100B700030EE600ADFEDFA0AB4EEE00AF1EE10FAA8
:100B800000DD0125002D7DD00025F2480068401CC5
:100B9000F04908600846006802280CD1B7EE002A28
:100BA000DFEDF01A9FEDF01ADFEDEF0A9FEDEF0A8F
:100BB000EF4803F0E9FFE7480068032812D1B7EED9
:100BC000002A5FED201A9FEDE81ADFEDE70AB3EE89
:100BD000040AE74803F0D8FF40F2DC5241463846A9
:100BE00005F03EF8DB48006804280CD1B7EE002A77
:100BF000DFEDDC1A9FEDDC1ADFEDDB0AB2EE0E0A48
:100C0000DB4803F0C1FFD348006806280CD1B7EEDB
:100C1000002ADFEDD81A9FEDD41ADFEDD30AB2EE29
:100C2000040AD34803F0B0FFCA480068072812D16D
:100C3000B7EE002ADFEDCB1A9FEDCB1ADFEDCA0A23
:100C4000B2EE040ACA4803F09FFF4FF47A7241469D
:100C5000384605F005F8BF48006808282AD1B7EEE5
:100C6000002ADFEDC51A9FEDC01ADFEDBF0A9FED28
:100C7000BF0ABF4803F088FF0320C0490870002066
:100C8000487000E023E040F201320221BB4804F04A
:100C9000C0FE012003F00CFC0620B84908700020BB
:100CA000487040F201320221B44804F0B2FE012043
:100CB00003F0FEFBA7480068B1490968884206DBDB
:100CC0004FF47A724146384604F0CAFF00E038E635
:100CD00000BF4FF47A724146384604F0C1FF03F07A
:100CE000B3FD40F6B83003F0E3FB0320A3490870DE
:100CF0000120487040F201320221A04804F089FE30
:100D0000012003F0D5FB03F09FFD0120914908600D
:100D100009209B49086000240126012099490860A8
:100D20009FED912A5FED791A9FED8F1ADFED8E0A04
:100D3000B0EE000A944803F027FFB7EE002A5FEDFB
:100D40009E1A9FED891ADFED880AB2EE0E0A8848D6
:100D500003F01AFF9FED8D1ADFED8D0A9FED8D0ACE
:100D60007D480C3003F01CFF9FED881ADFED8A0AE6
:100D70009FED880A7848183003F012FF9FED871A1C
:100D8000DFED870A9FED870A7348243003F008FFE0
:100D90009FED821ADFED840A9FED840A6E483030A1
:100DA00003F0FEFE9FED7D1ADFED7F0A9FED800AC6
:100DB00069483C3003F0F4FE9FED781ADFED7A0AC3
:100DC0009FED7A0A6448483003F0EAFE9FED731AFB
:100DD0005FEDAC0A9FED760A5F48543003F0E0FE09
:100DE0009FED6E1ADFED700A9FED700A5A48603071
:100DF00003F0D6FEC2E16F48006800287ED00020D4
:100E00006C490860604803F0D2FE04F028F8B0EEA8
:100E1000409A5D4804F059FA4E48006800EB4000E3
:100E20004D4901EB8000D0ED020AB0EE600A504857
:100E300004F046FC03F05CFB46480068072802D13A
:100E40000EB104F0DEFC04F065FB03F0E1FC414868
:100E50000068042805D1641C642C02D1002004F031
:100E600094FE3C480068052803D03A4800680728EB
:100E700006D1641CB4F5967F02D18C2004F085FE67
:100E800034480068062803D03248006808283BD15F
:100E9000641C3C2C02D1002004F077FEB4F5967F50
:100EA00011D16FF02C0004F069FE05203349087061
:100EB0000020487040F201320221304804F0A9FDC0
:100EC000012003F0F5FAB4F5C87F1DD102202B49AB
:100ED00008700120487040F201320221274804F0D6
:100EE00098FD012003F0E4FA042024490870002052
:100EF000487040F201320221204800E004E004F092
:100F000088FD012003F0D4FA1249096801EB410180
:100F1000114A02EB810191ED010A1049D1ED010A5C
:100F200030EE600ABDEEC00A10EE100A002801DBA8
:100F3000014600E041420F2904DA06490968072901
:100F400000D100260348006802283AD00148006812
:100F5000052831E05C0000203C0100201801002041
:100F6000000048C2000048430000000000000C429E
:100F7000C000002000002A430000AF431000002002
:100F80000000002014000020980000200000B4425F
:100F900000E092C500D0044600C08FC50000344375
:100FA000008054C500C0F345000048C500007A45E4
:100FB000002000465000002003D0FE4800680728AB
:100FC0000DD1FD48007A012809D1FB48407A01285B
:100FD00005D1F9484088B0F5C86F00DD0125F54B13
:100FE0001B6803EB4303DFF8D4C30CEB830393EDDF
:100FF000000AF34BD3ED000A30EE600ABDEEC00AE2
:1010000010EE102A002A01DB134600E053420F2B9A
:1010100034DAE84B1B6803EB4303DFF8A0C30CEBA7
:10102000830393ED010AE64BD3ED010A30EE600A2B
:10103000BDEEC00A10EE101A002901DB0B4600E0DD
:101040004B420F2B1ADADB4B1B6803EB4303DFF831
:101050006CC30CEB830393ED020AD94BD3ED020A68
:1010600030EE600ABDEEC00A10EE100A002801DB67
:10107000034600E04342022B00DA0125002D7DD01B
:101080000025CC480068401CCA4908600846006832
:10109000022802D18C2004F078FDC648006803289D
:1010A00007D0C4480068062803D0C2480068082852
:1010B00065D103F0C9FB0024A02004F066FD0220E6
:1010C000C04908700120487040F201320221BD4839
:1010D00004F09FFC012003F0EBF90420B9490870EB
:1010E0000020487040F201320221B64804F091FC21
:1010F0004FF47A7003F0DCF9D0E1AF48C088A0F576
:1011000080604FF4967148434FF4257190FBF1F0E5
:1011100000EE100AB8EEC00AAB4880ED000AA648FF
:101120008088A0F580604FF4967148434FF4257194
:1011300090FBF1F000EE100AB8EEC00AA34880ED73
:10114000000A9D480088A0F580604042C8214843BD
:101150004FF4257190FBF1F000EE100AB8EEC00AD2
:101160009B4880ED000A994890ED000AF0EE000AD5
:1011700080EE201A11EE109A484601E061E2ABE1E0
:1011800006F0FAFC41EC1A0B8F4890ED000AFFEED6
:10119000000A20EE200A10EE101A084606F0ECFCB9
:1011A0009FED8C0B53EC102B06F026FA9FED8B0B6A
:1011B00053EC102B06F06EF853EC1A2B05F0C2FF1F
:1011C00005F08EFF87490860804890ED000AFFEE29
:1011D000000A20EE200A084680ED010A7B4890EDC7
:1011E000000AF0EE000A80EE201A11EE109A48462E
:1011F00006F0C2FC41EC1A0B7348006806F0BCFC18
:101200009FED740B53EC102B06F0F6F99FED730B6A
:1012100053EC102B06F03EF853EC1A2B05F092FF1E
:1012200005F05EFF6F498860694890ED000A6E48DE
:1012300080ED000A664890ED000A6B4880ED010AD7
:10124000634890ED000A684880ED020A03F050F907
:10125000664991ED000ABDEEC00A10EE100A0028A2
:1012600001DB014600E0414200EE101AB8EEC00A70
:10127000B4EEC80AF1EE10FA11DD5C4991ED000AF6
:10128000BDEEC00A10EE100A002801DB014600E0A6
:10129000414200EE101AB8EEC00AB0EE408A53493F
:1012A00091ED010ABDEEC00A10EE100A002801DB24
:1012B000014600E0414200EE101AB8EEC00AB4EE5A
:1012C000C80AF1EE10FA11DD484991ED010ABDEEB0
:1012D000C00A10EE100A002801DB014600E041427E
:1012E00000EE101AB8EEC00AB0EE408A3F4991ED08
:1012F000020ABDEEC00A10EE100A002801DB01460A
:1013000000E0414200EE101AB8EEC00AB4EEC80A7E
:10131000F1EE10FA11DD354991ED020ABDEEC00A79
:1013200010EE100A002801DB014600E0414200EE09
:10133000101AB8EEC00AB0EE408A9FED2D0AB4EE46
:10134000C08AF1EE10FA18DD9FED290AC0EE080AF6
:10135000F0EE608A254890ED000A20EE280A80ED24
:10136000000A90ED010A20EE280A80ED010A90EDB6
:10137000020A20EE280A80ED020A03F049FA0E481C
:10138000007A012807D11B48B0F90000A02802D03C
:10139000A02004F0FAFB0848007A022805D115487D
:1013A000008810B1002004F0F0FB0348407A0128C7
:1013B00042D121E05C000020B60200203C01002068
:1013C0001801002010000020040000200800002068
:1013D0000C00002083C0CAA145B6FB3F00000000FE
:1013E00000000040E8000020F40000200C01002074
:1013F00000002F441C000020FC48007804281BD06B
:101400000220FA4908700120487040F2013202219E
:10141000F64804F0FEFA012003F04AF80420F349EC
:1014200008700020487040F201320221EF4804F0B9
:10143000F0FA012003F03CF8ED48407A02281FD171
:10144000EA48007802281BD00420E84908700120EF
:10145000487040F201320221E44804F0DAFA012037
:1014600003F026F80220E14908700020487040F29D
:1014700001320221DD4804F0CCFA012003F018F813
:10148000DB48007A032809D1D948407A032805D1DE
:10149000D7484088B0F5C86F00DD00E02DE600BFFA
:1014A0000420D24908700120487040F20132022124
:1014B000CE4804F0AEFA012002F0FAFF0220CB4938
:1014C00008700020487040F201320221C74804F041
:1014D000A0FA012002F0ECFFC6480068042851D1B0
:1014E00003F0B2F900246FF02C0004F047FB9FEDED
:1014F000C22ADFEDC21A9FEDC01ADFEDBF0AB7EEB8
:10150000000ABF4803F040FBB7EE002ADFEDBD1A2A
:101510009FEDB91ADFEDB80AB2EE0E0ABA4803F031
:1015200033FB0520B14908700020487040F20132B9
:101530000221AE4804F06DFA4FF47A7002F0B8FF61
:101540000220AA4908700120487040F201320221AD
:10155000A64804F05EFA012002F0AAFF0420A34985
:1015600008700020487040F2013202219F4804F0C8
:1015700050FA00BF9E48007A0228FBD09C48007AAF
:101580000328F7D09B480068052807D099480068D1
:10159000072803D09748006809284BD103F054F975
:1015A00000240220914908700120487040F2013265
:1015B00002218E4804F02DFA012002F079FF042068
:1015C0008A4908700020487040F2013202218748A1
:1015D00004F01FFAC82002F06BFF01208349087055
:1015E0000020487040F201320221804804F011FAD4
:1015F0004FF4FA6002F05CFF01207C4908704870EB
:1016000040F201320221794804F003FA012002F08D
:101610004FFF0520754908700120487040F20132E3
:101620000221724804F0F5F9012002F041FF002088
:1016300004F0A4FA6F48006874490968884200D130
:1016400001E0FFF7D8BB00BF4FF47A72414638463D
:1016500004F006FB03F0F8F85DE16548C088A0F5EA
:1016600080604FF4967148434FF4257190FBF1F080
:1016700000EE100AB8EEC00A654880ED000A5C482A
:101680008088A0F580604FF4967148434FF425712F
:1016900090FBF1F000EE100AB8EEC00A5D4880ED54
:1016A000000A53480088A0F580604042C8214843A2
:1016B0004FF4257190FBF1F000EE100AB8EEC00A6D
:1016C000554880ED000A534890ED000AF0EE000AFC
:1016D00080EE201A11EE109A484606F04DFA41ECC1
:1016E0001A0B4B4890ED000AFFEE000A20EE200A8C
:1016F00010EE101A084606F03FFA1FEDCA0B53EC25
:10170000102B05F079FF1FEDCB0B53EC102B05F0E0
:10171000C1FD53EC1A2B05F015FD05F0E1FC3F4926
:1017200008603C4890ED000AFFEE000A20EE200A17
:10173000084680ED010A374890ED000AF0EE000AF5
:1017400080EE201A11EE109A484606F015FA41EC88
:101750001A0B2F48006806F00FFA1FEDE20B53EC4E
:10176000102B05F049FF1FEDE30B53EC102B05F098
:1017700091FD53EC1A2B05F0E5FC05F0B1FC27496F
:101780008860254890ED000A254880ED000A22482F
:1017900090ED000A224880ED010A1F4890ED000AF2
:1017A0001F4880ED020A02F0A3FE1E4991ED000AD7
:1017B000BDEEC00A10EE100A002801DB014600E071
:1017C000414200EE101AB8EEC00AB4EEC80AF1EEBB
:1017D00010FA30DD134991ED000ABDEEC00A10EE9B
:1017E000100A002820DB01461FE000001000002046
:1017F000B60200205C000020000000000000FA4358
:101800009800002000004843C00000200000002095
:1018100004000020080000200C000020E800002048
:10182000F40000200C010020414200EE101AB8EE36
:10183000C00AB0EE408A384991ED010ABDEEC00AF7
:1018400010EE100A002801DB014600E0414200EEE4
:10185000101AB8EEC00AB4EEC80AF1EE10FA11DDA3
:101860002D4991ED010ABDEEC00A10EE100A0028C4
:1018700001DB014600E0414200EE101AB8EEC00A5A
:10188000B0EE408A244991ED020ABDEEC00A10EE86
:10189000100A002801DB014600E0414200EE101A68
:1018A000B8EEC00AB4EEC80AF1EE10FA11DD1A491A
:1018B00091ED020ABDEEC00A10EE100A002801DB0D
:1018C000014600E0414200EE101AB8EEC00AB0EE48
:1018D000408A9FED120AB4EEC08AF1EE10FA18DDCC
:1018E0009FED0E0AC0EE080AF0EE608A0A4890EDFD
:1018F000000A20EE280A80ED000A90ED010A20EE91
:10190000280A80ED010A90ED020A20EE280A80EDF7
:10191000020A02F07DFFA0E60C01002000002F4427
:10192000704700BFFEE700BFFEE700BFFEE700BF55
:10193000FEE7704770477047704700000CB5002005
:10194000019000907648006840F480307449086047
:1019500000BF7348006800F4003000900198401CFC
:101960000190009818B90198B0F5A04FF1D16C48DA
:10197000006800F4003010B10120009001E0002068
:1019800000900098012846D165484030006840F03A
:1019900080506349403108606248006840F440402C
:1019A000604908605E48083000685D490831086099
:1019B0000846006840F4004008600846006840F4AB
:1019C000A05008605848091F0860081F006840F0D0
:1019D0008070091F086000BF5148006800F0007067
:1019E0000028F9D040F20570504908604C48083092
:1019F000006820F003004A49083108600846006882
:101A000040F00200086000BF45480830006800F060
:101A10000C000828F8D10CBD10B54548006840F40A
:101A20007000434908603E48006840F001003C49AE
:101A3000086000203A4908310860394800683D498B
:101A40000840374908603C48091D0860081F0068C5
:101A500020F48020091F0860002031490C31086003
:101A6000FFF76CFF4FF0006031498039086010BD0E
:101A700070B500200022022300240221284D0835E1
:101A80002D6805F00C0020B1042806D0082834D1B8
:101A900007E02A4D2A4E356033E02A4D284E356046
:101AA0002FE01F4D2D1D2D68C5F380541C4D2D1D9D
:101AB0002D6805F03F0154B1224DB5FBF1F5184EEC
:101AC000361D3668C6F3881605FB06F209E01B4D85
:101AD000B5FBF1F5124E361D3668C6F3881605FBC8
:101AE00006F20F4D2D1D2D68C5F301456D1C6B00D1
:101AF000B2FBF3F5124E356003E0104D104E356029
:101B000000BF00BF064D08352D68C5F303150E4E06
:101B1000705D0B4D2D68C540094E356070BD0000ED
:101B2000003802400070004019544007003C024059
:101B300088ED00E0FFFFF6FE103000240024F400E2
:101B40002000002040787D012400002009488047C3
:101B500009480047FEE7FEE7FEE7FEE7FEE7FEE78F
:101B6000FEE7FEE7FEE7FEE704480549054A064BA7
:101B700070470000191A000889010008300300208E
:101B80003009002030050020300500203249014393
:101B9000324A1160704770B5002100230F22C478CB
:101BA0001CB32E4C246804F4E064C4F5E064C4F370
:101BB0000721C1F10404E3B20A4144789C40E1B238
:101BC0008478144021430C07210E254C057861557B
:101BD000047804F01F050124AC4005786D11AD00B8
:101BE00005F1E025C5F8004109E0047804F01F057F
:101BF0000124AC401B4D0678761145F8264070BD97
:101C0000194A0A400243154B1B1F1A60704739B12D
:101C1000124A121D12680243104B1B1D1A6006E087
:101C20000E4A121D126882430C4B1B1D1A6070472E
:101C3000042808D14FF0E021096941F004014FF078
:101C4000E022116107E04FF0E021096921F0040171
:101C50004FF0E022116170470000FA050CED00E042
:101C600000E400E080E100E080FFFF1F10B50446C3
:101C7000FE48844209D10121480601F085FA00217D
:101C80004FF0007001F080FA08E00121880601F0B1
:101C90007BFA00214FF0806001F076FA10BD30B57C
:101CA000024600200023146824F002041460146823
:101CB00044F00104146000E05B1C546804F001046B
:101CC0001CB94FF6FF74A342F6D1546804F0010426
:101CD0000CB900206CE08C79012C04D1146844F01C
:101CE0008004146003E0146824F080041460CC794C
:101CF000012C04D1146844F04004146003E014681B
:101D000024F0400414600C7A012C04D1146844F0CF
:101D10002004146003E0146824F0200414604C7A5A
:101D2000012C04D1146844F01004146003E014681A
:101D300024F0100414608C7A012C04D1146844F04F
:101D40000804146003E0146824F008041460CC7ADA
:101D5000012C04D1146844F00404146003E01468F6
:101D600024F0040414608C78A407CD7844EA056458
:101D70000D7944EA05444D7944EA05540D886D1EF9
:101D80002C43D461146824F001041460002300E0A3
:101D90005B1C546804F001041CB14FF6FF74A342AD
:101DA000F6D1546804F001040CB1002000E00120D9
:101DB00030BD10B50021837A012202FA03F1AC4A4A
:101DC000126842F00102AA4B1A60A94A1C3212683A
:101DD0008A43A74B1C331A60027BCAB9A44A0C324F
:101DE00012688A43A24B0C331A604288C38842EAC5
:101DF00003439F4A4032847A42F834300288838811
:101E000042EA03439A4A4032847A02EBC4025360A6
:101E1000027B012A19D1964A0C3212680A43944B6C
:101E20000C331A604288038842EA0343904A4032E6
:101E3000847A42F83430C288838842EA03438C4A69
:101E40004032847A02EBC4025360C27A3AB9884ABB
:101E5000121D12688A43864B1B1D1A6006E0844AD5
:101E6000121D12680A43824B1B1D1A60028932B987
:101E70007F4A143212688A437D4B14331A600289F8
:101E8000012A06D17A4A143212680A43784B143375
:101E90001A60427B012A06D1754A1C3212680A4335
:101EA000734B1C331A60724A126822F00102704BA5
:101EB0001A6010BD00218171C1710172417281727D
:101EC000C1728170C1700321017102214171012130
:101ED000018070476649096841F00101644A116058
:101EE0001146096843F60E729143614A116011462A
:101EF000096841EA002111601146096821F00101D9
:101F00001160704721B1026842F48032026003E040
:101F1000026822F4803202607047E1B1026842F048
:101F2000800202604FF4C272125842F480734FF480
:101F3000C27213504FF4CA72125842F480734FF4B5
:101F4000CA7213504FF4D272125842F480734FF495
:101F5000D27213501BE0026822F0800202604FF43C
:101F6000C272125822F480734FF4C27213504FF4AD
:101F7000CA72125822F480734FF4CA7213504FF48D
:101F8000D272125822F480734FF4D27213507047F9
:101F900010B502460020936803F08063B3F1806FB0
:101FA00000D110E0936803F00063B3F1006F01D13A
:101FB000012008E0936803F08053B3F1805F01D102
:101FC000022000E00420042879D002F5C07303EB5E
:101FD00000131B6803F0010402F5C07303EB001348
:101FE0001C600B7A7BB94B7A0C8843EA445302F5A8
:101FF000C07404EB00142468234302F5C07404EB9E
:102000000014236010E00B7A4C6843EAC4034C7A56
:10201000234302F5C07404EB00142468234302F543
:10202000C07404EB001423608B7A03F00F038B72EF
:1020300002F5C07303EB00135B6823F00F0402F595
:10204000C07303EB00135C6002F5C07303EB001375
:102050005B688C7A234302F5C07404EB0014636060
:102060008B7B1C064B7B44EA034403E00064004086
:10207000006600400B7B44EA0323CC7A234302F53D
:10208000C07404EB0014A3608B7C1C064B7C44EAF8
:1020900003440B7C44EA0323CC7B234302F5C07446
:1020A00004EB0014E36002F5C07303EB00131B683C
:1020B00043F0010402F5C07303EB00131C6010BD74
:1020C00010B50246002321B1012907D002290FD102
:1020D00009E09068F94C00EA04030BE09068F84CC2
:1020E00000EA040306E09068F64C00EA040301E00D
:1020F000002300BF00BFF44C181BA34216D007DC1E
:1021000083B16FF08060184470B1022818D111E0DB
:10211000B0F5007F10D0ED4C204448B1B0F5003F41
:102120000ED10BE002230DE000230BE0002309E0B9
:10213000002307E0012305E0012303E0012301E080
:10214000002300BF00BFD8B210BD21B1012907D0C4
:1021500002290FD109E0826842F0800282600AE021
:10216000826842F40042826005E0826842F4000224
:10217000826000E000BF00BF704710B500F5D87363
:1021800003EB01131B6803F004031372137A53B9B2
:1021900000F5D87303EB01131B6840F2FF7404EAE7
:1021A0005353136009E000F5D87303EB01131B6868
:1021B0006FF0604404EAD303536000F5D87303EB77
:1021C00001131B6803F00203537200F5D87303EB8D
:1021D00001135B6803F00F03937200F5D87303EBF0
:1021E00001135B681B0AD37400F5D87303EB01136A
:1021F0009B68D37200F5D87303EB01139B681C0A2C
:10220000147300F5D87303EB01139B681C0C547313
:1022100000F5D87303EB01139B681B0E937300F555
:10222000D87303EB0113DB68D37300F5D87303EBAA
:102230000113DB681C0A147400F5D87303EB011357
:10224000DB681C0C547400F5D87303EB0113DB68D6
:102250001B0E937421B9C36843F02003C36003E0ED
:10226000036943F02003036110BD21B9C26842F045
:102270002002C26003E0026942F02002026170475E
:102280000246002019B9D36803F0030006E00129D3
:1022900003D1136903F0030000E00020704710B57C
:1022A00002460B4600204FF6FF71BBB9146824F0BC
:1022B000020444F00104146000E0491E546804F074
:1022C0000304012C01D00029F7D1546804F0030461
:1022D000012C01D0002032E0012030E0012B13D18D
:1022E000146824F00304146000E0491E546804F0EC
:1022F00003040CB10029F8D1546804F003040CB1B4
:1023000000201CE001201AE0022B17D1146824F0F1
:10231000010444F00204146000E0491E546804F013
:102320000304022C01D00029F7D1546804F00304FF
:10233000022C01D0002002E0012000E0002010BDAE
:10234000014600200A6822F0010242F002020A60FF
:102350004A6802F00302022A00D1012070470146B8
:102360004FF6FF7200200B6823F002030B6000E0C1
:10237000521E4B6803F00203022B01D1002AF7D151
:102380004B6803F00203022B00D001207047014686
:1023900000208A6902F070007047014600208A69B7
:1023A000100E7047014600208A69C2F3074070474B
:1023B0001AB143690B43436102E043698B434361B4
:1023C000704710B50246002001F4700343B19369D1
:1023D000C1F3130423400BB101202DE000202BE0BA
:1023E00001F0807343B15368C1F3130423400BB170
:1023F000012021E000201FE001F0006343B1936859
:10240000C1F3130423400BB1012015E0002013E0B9
:1024100001F0007343B1D368C1F3130423400BB13F
:10242000012009E0002007E01369C1F313042340F1
:102430000BB1012000E0002010BD0022244B994286
:1024400002D10023836111E0C1F3130201F0007394
:102450000BB1C2600AE001F080630BB1026105E0DC
:1024600001F000630BB1826000E0426070470246F9
:10247000002002EA01030BB1012000E000207047B8
:1024800070B504460D46002660692840002872D0C9
:10249000B5F5807F69D01DDC082D42D006DC012D0A
:1024A0002DD0022D31D0042D7FD134E0102D3ED01F
:1024B000202D42D0402D78D145E0000003000004DB
:1024C0000003000800000310000100080001FFF7EE
:1024D0007000F030B5F5004F61D009DCB5F5007F34
:1024E0004AD0B5F5806F4DD0B5F5006F5DD150E0A5
:1024F000B5F5803F2DD0B5F5003F56D12FE0A0684F
:102500005549FFF7B4FF064651E0E0680321FFF7A5
:10251000AEFF06464BE0E0680821FFF7A8FF06463D
:1025200045E0E0681021FFF7A2FF06463FE0206982
:102530000321FFF79CFF064639E020690821FFF7D9
:1025400096FF064633E020691021FFF790FF06460C
:102550002DE060680821FFF78AFF064627E06068E3
:102560001021FFF784FF064621E0A0690121FFF753
:102570007EFF06461BE01BE0A0690221FFF777FF04
:10258000064614E0A0690421FFF771FF06460EE03D
:102590000BE0A0697021FFF76AFF064607E060685C
:1025A0000421FFF764FF064601E0002600BF00E0BB
:1025B0000026304670BDB1F5007F3AD00FDC2029EF
:1025C00028D006DC01291CD004291DD0082940D1BF
:1025D0001DE0402921D0B1F5807F3AD126E0B1F548
:1025E000004F31D006DCB1F5806F25D0B1F5006F1A
:1025F0002FD124E0B1F5803F12D0B1F5003F28D1B2
:1026000011E0154A826025E00822C26022E0102213
:10261000C2601FE0082202611CE01022026119E082
:102620000822426016E01022426013E00422426059
:1026300010E0042242600DE0042242600AE0002221
:1026400082610422426005E000228261042242602D
:1026500000E000BF00BF704701010100016821F0E8
:10266000010101600021016041608160C160016180
:1026700021214161DB49884204D13D21D94A103AE8
:1026800091608CE0D7491831884205D14FF47461CC
:10269000D44A103A916082E0D2493031884205D163
:1026A0004FF47411CF4A103A916078E0CD49483127
:1026B000884205D14FF07461CA4A103A91606EE0C9
:1026C000C8496031884204D1C749C64A103AD1602E
:1026D00065E0C4497831884204D1C449C14A103AFE
:1026E000D1605CE0BF499031884204D1C049BD4A05
:1026F000103AD16053E0BB49A831884205D14FF070
:102700003D51B84A103AD16049E0BA49884204D1F3
:102710003D21B84A083A116041E0B6491831884273
:1027200005D14FF47461B34A083A116037E0B149FA
:102730003031884205D14FF47411AE4A083A116025
:102740002DE0AC494831884205D14FF07461A94A67
:10275000083A116023E0A7496031884204D1A249B8
:10276000A44A121F11601AE0A2497831884204D1AC
:102770009E49A04A121F116011E09E499031884283
:1027800004D19B499B4A121F116008E09949A83166
:10279000884204D14FF03D51964A121F1160704794
:1027A00010B500220268944B1A40CC680B68234392
:1027B0004C6923438C692343CC6923430C6A23432C
:1027C0004C6A23438C6A23434C6B23438C6B234317
:1027D0001A430260426922F00702D1E90B34234315
:1027E0001A4342610B6943604B6883608B68C36026
:1027F00010BD0021016041608160C16001614161E3
:102800008161C161016241628162C16201634163B0
:102810008163704721B1026842F00102026003E067
:10282000026822F001020260704721B1026842F49E
:102830000042026003E0026822F400420260704736
:1028400021B1026842F02002026003E0026822F037
:10285000200202607047416070470146486880B2BC
:10286000704722B1036843F40023036003E0036868
:1028700023F4002303600161704721B1026842F430
:102880008022026003E0026822F480220260704726
:102890000AB1016100E0C1607047014600200A688A
:1028A00002F400220AB1012000E000207047014636
:1028B00000200A6802F001020AB1012000E00020B5
:1028C0007047014600204A6902F03800704730B571
:1028D00003460A4600200024464DAB4202D241493D
:1028E000103901E04349103902F000550DB14C6830
:1028F00000E00C68414D2C4004EA02050DB10120B6
:1029000000E0002030BD02463A4B9A4202D23548E0
:10291000103801E03748103801F000531BB1374B35
:102920000B40C36002E0354B0B408360704710B52D
:1029300001F080034BB122B1436943F0800343614E
:1029400003E0436923F08003436180290BD02AB15F
:10295000036801F01E042343036004E0036801F0F0
:102960001E04A343036010BD70B50246002000247E
:102970000025204EB24202D21A4B103B01E01D4B03
:10298000103B1F4E0E4036B11E2606EAD1241668B3
:1029900006EA040502E0566906F0800501F00056DB
:1029A0000EB15C6800E01C68144E344004EA010675
:1029B00016B10DB1012000E0002070BD02460D4BA4
:1029C0009A4202D20748103801E00A48103801F054
:1029D00000531BB1094B0B40C36002E0074B0B4097
:1029E00083607047106002403D000020400F0020CF
:1029F00000003D20106402403F801CF07D0F7D0FE1
:102A00003C0F3C0F10B504469848844208D1012180
:102A1000084600F086FB0021012000F082FB76E0F2
:102A20009348844208D10121022000F07AFB002162
:102A3000022000F076FB6AE08E48844208D1012132
:102A4000042000F06EFB0021042000F06AFB5EE031
:102A50008948844208D10121082000F062FB00214E
:102A6000082000F05EFB52E08448844208D1012136
:102A7000102000F056FB0021102000F052FB46E031
:102A80007F48844208D10121202000F04AFB002128
:102A9000202000F046FB3AE07A48844208D1012128
:102AA000402000F03EFB0021402000F03AFB2EE0E9
:102AB0007548844208D10121802000F032FB0021BA
:102AC000802000F02EFB22E07048844208D10121D2
:102AD000801500F026FB0021A01500F022FB16E077
:102AE0006B48844208D10121401500F01AFB0021F7
:102AF000601500F016FB0AE06648844207D1012108
:102B0000001500F00EFB0021201500F00AFB10BD9F
:102B1000F0B50A4600210023002400BF3DE0012556
:102B200005FA01F3156805EA03049C4234D10568EF
:102B30004F000326BE40B543056015794E00B540F1
:102B40000668354305601579012D02D01579022DEF
:102B500016D185684F000326BE40B5438560557980
:102B60004E00B540866835438560456801268E4035
:102B7000B5434560456896798E40B6B235434560A9
:102B8000C5684F000326BE40B543C560D5794E00E9
:102B9000B540C6683543C560491C1029BFD3F0BD98
:102BA0004FF6FF7101600021017141718171C171A6
:102BB000704708B54FF480320092009A0A430092A1
:102BC000009AC261C161009AC261C2690092C26981
:102BD000009208BD0246002013690B400BB1012092
:102BE00000E0002070470146086980B27047024645
:102BF000002053690B400BB1012000E0002070471A
:102C00000146486980B2704701837047418370472D
:102C10000AB1018300E04183704741617047426916
:102C20004A4042617047F0B5002300244D07ED0E85
:102C300002FA05F3CE1000F1200555F826504E0794
:102C4000F70E0F26BE40B543CF1000F1200646F820
:102C50002750CE1000F1200555F8265045EA030410
:102C6000CE1000F1200545F82640F0BD00000240DE
:102C70000004024000080240000C02400010024024
:102C80000014024000180240001C024000200240D4
:102C90000024024000280240F948006840F001008A
:102CA000F74908600020F64908310860F4480068D8
:102CB000F4490840F2490860F348091D0860F348E8
:102CC000EF4984310860F0481038091D0860EC486D
:102CD000006820F48020EA4908600020E8490C31AF
:102CE0000860E7498C31086070470021E44A921C73
:102CF000117011460870704710B50146002200237C
:102D000000204A11012A02D1DD4C236808E0022A82
:102D100003D1DB4C7034236802E0D94C743423684F
:102D200001F01F02012494401C400CB1012000E07E
:102D3000002010BD38B5002000900024002500BF01
:102D40003120FFF7D9FF05460098401C00900098FD
:102D5000B0F5A04F01D0002DF2D03120FFF7CCFF0D
:102D600008B1012400E00024204638BD01460020BF
:102D7000C34A106820F0F80040EAC10010607047B4
:102D8000C349086070470021BD4A7032117011704C
:102D9000012802D004280AD104E00121B84A703287
:102DA000117005E00521B64A7032117000E000BFD5
:102DB00000BF7047B7490860704770B5049C41EA8E
:102DC00082150126C6EB530645EA0645054345EA4A
:102DD0000465AB4E361D356070BDAD490866704761
:102DE000820142EA0172A64B84331A607047A849F7
:102DF0008866704710B5830143EA016343EA0273B2
:102E00009F4C8834236010BDA14908677047A049D2
:102E1000C864704702460020994B0833186820F0B8
:102E2000EC6042EA01031843954B08331860704781
:102E300002460020924B0833186820F0784042EA9E
:102E4000010318438E4B0833186070470146002079
:102E50008B4A0832106820F0030008431060704766
:102E600087480830006800F00C00704701460020D9
:102E7000834A0832106820F0F00008431060704761
:102E8000014600207E4A0832106820F4E0500843D2
:102E90001060704701460020794A0832106820F41B
:102EA000604040EAC10010607047F0B50021002288
:102EB0000024022500260223714F08373F6807F0DF
:102EC0000C0121B1042905D0082937D105E0724F42
:102ED000076036E0714F076033E0694F3F1D3F6880
:102EE000C7F38056664F3F1D3F6807F03F036EB142
:102EF0006A4FB7FBF3F7DFF888C10CF1040CDCF87C
:102F000000C0CCF3881C07FB0CF40CE0624FB7FB4D
:102F1000F3F7DFF86CC10CF1040CDCF800C0CCF363
:102F2000881C07FB0CF4564F3F1D3F68C7F3014751
:102F30007F1C7D00B4FBF5F7076002E0564F076089
:102F400000BF00BF4E4F08373F6807F0F001090986
:102F5000534F7A5C0768D7404760494F08373F684E
:102F600007F4E051890A4E4F7A5C4768D740876082
:102F7000434F08373F6807F46041490B484F7A5C7C
:102F80004768D740C760F0BD002100F44072B2F539
:102F9000407F0AD13A4A0832116821F4F811414AB7
:102FA00002401143364A08321160354A70321268C5
:102FB000C0F30B031A43324B70331A607047354924
:102FC00044390860704733494039086070473649D2
:102FD0000860704701460020294A8C32106820F0B2
:102FE0001F004A1E1043264A8C321060704701466B
:102FF0000020234A8C32106820F4F8504A1E40EA20
:1030000002201F4A8C3210607047014600201C4A83
:103010008C32106820F4401008431060704701465D
:103020000020174A8C32106820F4400008431060DA
:10303000704701460020124A8C32106820F440305C
:1030400008431060704719490860704739B10C4A4D
:103050003032126802430A4B30331A6006E0084AE5
:10306000303212688243064B30331A607047F9B130
:10307000034A343212680243014B34331A601CE0B5
:1030800000380240FFFFF6EA103000240030002034
:1030900000004742800E47420024F40040787D0142
:1030A00034000020FFFCFF0F5C014742E011474263
:1030B0008F4A126882438E4B1A60704739B18C4A2E
:1030C000121D126802438A4B1B1D1A6006E0884AD3
:1030D000121D12688243864B1B1D1A60704739B15E
:1030E000834A0C3212680243814B0C331A6006E0AB
:1030F0007F4A0C32126882437D4B0C331A60704752
:1031000039B17B4A103212680243794B10331A608E
:1031100006E0774A103212688243754B10331A600A
:10312000704739B1724A243A12680243704B243B0B
:103130001A6006E06E4A243A126882436C4B243BC4
:103140001A60704739B16A4A203A12680243684BE4
:10315000203B1A6006E0664A203A12688243644BBC
:10316000203B1A60704739B1614A1C3A1268024329
:103170005F4B1C3B1A6006E05D4A1C3A12688243B2
:103180005B4B1C3B1A60704739B1594A143A1268BC
:103190000243574B143B1A6006E0554A143A126832
:1031A0008243534B143B1A60704739B1504A103A6E
:1031B000126802434E4B103B1A6006E04C4A103A2C
:1031C000126882434A4B103B1A60704739B1484A33
:1031D0001C3212680243464B1C331A6006E0444A14
:1031E0001C3212688243424B1C331A60704739B15B
:1031F0003F4A2032126802433D4B20331A6006E0FA
:103200003B4A203212688243394B20331A607047A0
:1032100039B1374A243212680243354B24331A60DD
:1032200006E0334A243212688243314B24331A6059
:10323000704739B12E4A2C32126802432C4B2C3382
:103240001A6006E02A4A2C3212688243284B2C333B
:103250001A60704739B1264A303212680243244B53
:1032600030331A6006E0224A303212688243204B23
:1032700030331A607047012808D11D493C31096874
:1032800041F008011A4A3C32116007E018493C310C
:10329000096821F00801164A3C321160704739B1C3
:1032A000134A273A12780243114B273B1A7006E063
:1032B0000F4A273A127882430D4B273B1A7070470A
:1032C0000B484030006840F0807009494031086088
:1032D000704701460020064A283A12680A400AB19F
:1032E000012000E00020704701492639087070472E
:1032F0003438024010B50446FE48844208D101210A
:103300000846FFF752FF00210120FFF74EFF9DE026
:10331000B4F1804F08D101210846FFF735FF0021A5
:103320000120FFF731FF91E0F348844208D10121E9
:103330000220FFF729FF00210220FFF725FF85E08B
:10334000EE48844208D101210420FFF71DFF00212F
:103350000420FFF719FF79E0E948844208D10121F0
:103360000820FFF711FF00210820FFF70DFF6DE097
:10337000E448844208D101211020FFF705FF002115
:103380001020FFF701FF61E0DF48844208D10121EE
:103390002020FFF7F9FE00212020FFF7F5FE55E081
:1033A000DA48844208D101210220FFF7FEFE002105
:1033B0000220FFF7FAFE49E0D548844209D10121F5
:1033C0000804FFF7F2FE00214FF48030FFF7EDFE16
:1033D0003CE0D048844209D101214804FFF7E5FED2
:1033E00000214FF40030FFF7E0FE2FE0CA4884428E
:1033F00009D101218804FFF7D8FE00214FF4802075
:10340000FFF7D3FE22E0C548844208D101214020C5
:10341000FFF7BAFE00214020FFF7B6FE16E0C048D5
:10342000844208D101218020FFF7AEFE00218020D8
:10343000FFF7AAFE0AE0BB48844207D101218015AC
:10344000FFF7A2FE0021A015FFF79EFE10BD00228F
:103450000288A84B98420ED0AC4B98420BD0B0F1EA
:10346000804F08D0A44B984205D0A44B984202D07C
:10347000A34B984204D14FF68F731A404B881A43DE
:10348000A04B984207D0A04B984204D04FF6FF4380
:103490001A400B891A4302804B68C3620B8803856C
:1034A000944B984202D0994B984201D18B7A038673
:1034B0000123838270474FF0FF314160002101807A
:1034C00001814180817270470185828270470A467E
:1034D000002101884FF68F73194011430180704716
:1034E00041627047C16270470146486A70470146B1
:1034F000088D704721B1028842F00202028004E088
:1035000002884FF6FD731A400280704721B102888D
:1035100042F00402028004E002884FF6FB731A4076
:103520000280704721B1028842F08002028004E0EC
:1035300002884FF67F731A400280704702884FF668
:10354000F7731A40028002880A430280704702889B
:103550004FF6FF431A40028002880A4302807047F8
:1035600021B1028842F00102028004E002884FF695
:10357000FE731A400280704770B5002400220023B9
:10358000058C4FF6FE7635400584028C8388048BCB
:103590004FF68F752C40B51E2C400D882C43751EA0
:1035A0002A408D892A434D882A43524DA84202D091
:1035B000564DA84213D14FF6F7752A40CD892A43BC
:1035C0004FF6FB752A408D882A434FF6FF652B4046
:1035D0004FF6FF552B400D8A2B434D8A2B4383809A
:1035E00004838D684563028470BD70B50024002299
:1035F0000023058C4FF6EF7635400584028C8388D6
:10360000048B48F6FF752C404FF6FF452C400D8883
:103610004FF6FF7606EA05252C434FF6DF752A4064
:103620008D8906EA05152A434D8806EA05152A43C1
:10363000304DA84202D0354DA8421DD14FF67F75BE
:103640002A40CD894FF6FF7606EA05152A434FF644
:10365000BF752A408D8806EA05152A434FF6FF35C7
:103660002B404FF2FF752B400D8A06EA85052B4350
:103670004D8A06EA85052B43838004838D68856324
:10368000028470BD70B5002400220023058C4FF623
:10369000FF6635400584028C8388848B4FF68F75D6
:1036A0002C404FF6FC752C400D882C434FF6FF55EF
:1036B0002A408D894FF6FF7606EA05252A434D8874
:1036C00006EA05252A430B4DA84202D00F4DA84219
:1036D00038D14FF2FF752A40CD894FF6FF7606EAC2
:1036E00005252A434FF6FF352A408D8806EA052531
:1036F0002A4319E000000140000400400008004097
:10370000000C004000100040001400400004014084
:1037100000400140004401400048014000180040C2
:10372000001C0040002000404EF6FF752B404DF677
:10373000FF752B400D8A06EA05152B434D8A06EAD4
:1037400005152B43838084838D68C563028470BD17
:1037500070B5002200230024058C4EF6FF7635401C
:103760000584038C8488828B48F6FF752A404FF6C7
:10377000FF452A400D884FF6FF7606EA05252A43C5
:103780004DF6FF752B408D8906EA05352B434D8894
:1037900006EA05352B43FE4DA84202D0FD4DA84256
:1037A00008D14BF6FF752C400D8A4FF6FF7606EADE
:1037B00085152C43848082838D680564038470BDE5
:1037C000002101804180818081608181C1810182ED
:1037D0004182704770B50346002000241846183017
:1037E00001258D40ACB21D8CA5431D8409B108296B
:1037F0000AD100EB610005684FF68F763540056011
:103800000568154305600FE00D1FC5F34E052844FC
:10381000056848F6FF763540056005684FF6FF7687
:1038200006EA02263543056070BD41637047816337
:103830007047C1637047016470470A460021018BDD
:103840004FF68F7319401143018370470A460021D8
:10385000018B48F6FF7319404FF6FF7303EA02230A
:103860001943018370470A460021818B4FF68F73FD
:1038700019401143818370470A460021818B48F625
:10388000FF7319404FF6FF7303EA02231943818344
:1038900070470A460021018B4FF6F7731940114318
:1038A000018370470A460021018B4FF2FF731940D4
:1038B0004FF6FF7303EA02231943018370470A4658
:1038C0000021818B4FF6F7731940114381837047B4
:1038D0000A460021818B4FF2FF7319404FF6FF73A8
:1038E00003EA02231943818370470A460021018BB2
:1038F0004FF6FB7319401143018370470A460021BC
:10390000018B4FF6FF3319404FF6FF7303EA022392
:103910001943018370470A460021818B4FF6FB73E0
:1039200019401143818370470A460021818B4FF66D
:10393000FF3319404FF6FF7303EA022319438183D3
:1039400070470A460021018B4FF67F7319401143DF
:10395000018370470A460021018BC1F30E014FF627
:10396000FF7303EA02231943018370470A460021CB
:10397000818B4FF67F7319401143818370470A464C
:103980000021818BC1F30E014FF6FF7303EA02237E
:103990001943818370470A460021018C4FF6FD735D
:1039A00019401143018470470A460021018C4FF6EB
:1039B000F77319401143018470470A460021018CB6
:1039C0004FF6DF7319404FF6FF7303EA02131943F2
:1039D000018470470A460021018C4FF67F7319401D
:1039E0004FF6FF7303EA02131943018470470A4636
:1039F0000021018C4FF6FF5319404FF6FF7303EA85
:103A000002231943018470470A460021018C4FF2BA
:103A1000FF7319404FF6FF7303EA02231943018431
:103A200070470A460021018C4DF6FF7319404FF68E
:103A3000FF7303EA023319430184704730B5002352
:103A400001248C40A3B2048C9C430484048C02FAAD
:103A500001F5ADB22C43048430BD30B500230424FD
:103A60008C40A3B2048C9C430484048C02FA01F5BC
:103A7000ADB22C43048430BD828B4FF2FF331A4029
:103A80008283828B4FF6FF7303EA01231A438283FA
:103A90007047F0B50C461546002100220026078C21
:103AA0004EF6FF7C07EA0C070784818B028C4FF6E9
:103AB000FF7707EA043640F6FF4739404FF6FF77B5
:103AC00007EA052739434FF6FF7707EA03373943FB
:103AD00045F6FF773A4046F480573A4381830284A3
:103AE000F0BD828B4FF6F3731A408283828B0A43B8
:103AF00082837047F0B50C4615460021002200264F
:103B0000078C4FF6FF6C07EA0C070784818B028C49
:103B10004FF6FF7707EA04264FF60C7739404FF649
:103B2000FF7707EA03172F4339434FF2FF573A4015
:103B300046F480773A4381830284F0BD028B4FF2D2
:103B4000FF331A400283028B4FF6FF7303EA01230F
:103B50001A4302837047F0B50C4615460021002237
:103B60000026078C4FF6EF7C07EA0C070784018BD1
:103B7000028C4FF6FF7707EA041640F6FF473940FC
:103B80004FF6FF7707EA033739434FF6FF7703E035
:103B9000000001400004014007EA052739434FF6C1
:103BA0005F773A4046F010073A4301830284F0BD44
:103BB000028B4FF6F3731A400283028B0A4302838F
:103BC0007047F0B50C46154600210022068C4FF6D2
:103BD000FE773E400684018B028C4FF60C76314016
:103BE0007E1C06EA03162E4331434FF6F57632402B
:103BF00044F00106324301830284F0BD70B50546EE
:103C00000C46208850B92389A28861882846FFF78E
:103C1000D8FFE1882846FFF7CBFF25E0208804285D
:103C20000AD12389A28861882846FFF794FFE1889A
:103C30002846FFF783FF17E0208808280AD1238948
:103C4000A28861882846FFF755FFE1882846FFF7DC
:103C500048FF09E02389A28861882846FFF719FFF9
:103C6000E1882846FFF708FF70BD002101804180F0
:103C7000012181800021C180018170472DE9F0413F
:103C800005460C4600260127608808B9022600E098
:103C90000026A088012801D1022700E00127208802
:103CA000A0B92389A28861882846FFF78AFFE188A6
:103CB0002846FFF77DFF23893A4631462846FFF71D
:103CC0004AFFE1882846FFF739FF13E02389A288DD
:103CD00061882846FFF73FFFE1882846FFF72EFF5F
:103CE00023893A4631462846FFF76BFFE18828468C
:103CF000FFF75EFFBDE8F0810146486B7047014663
:103D0000886B70470146C86B70470146086C704766
:103D10000A884B881A438B881A43CB881A430B892D
:103D20001A434B891A438B891A43A0F844207047E1
:103D30000021018041808180C18001814181818198
:103D4000704731B1B0F8442042F40042A0F844205A
:103D500005E0B0F84420C2F30E02A0F844207047FA
:103D600021B1828842F00402828004E082884FF60A
:103D7000FB731A408280704721B1828842F00102B1
:103D8000828004E082884FF6FE731A40828070477A
:103D90001AB183890B43838102E083898B4383813A
:103DA00070478182704702460020138A0B400BB196
:103DB000012000E000207047CA430282704730B5FE
:103DC0000246002000230024158A05EA0103958994
:103DD00005EA010413B10CB1012000E0002030BD60
:103DE000CA430282704741EA0203A0F84830704794
:103DF0001AB183890B43838102E083898B438381DA
:103E0000704721B1828842F00802828004E08288F3
:103E10004FF6F7731A408280704701894FF6F872A7
:103E20001140018170470A46002101894FF68F73C6
:103E3000194011430181704730B504460D462946AB
:103E40002046FFF7F0FF208940F00700208130BDB9
:103E50002DE9F04104460D4616461F46602D06D159
:103E60003B46012231462046FFF775FE05E03B4602
:103E7000012231462046FFF7A4FE29462046FFF7DF
:103E8000D2FF208940F007002081BDE8F08130B5E5
:103E90000C4600210189C9B24FF6FF7505EA0325DA
:103EA000154325432943018130BD2DE9F0410546E5
:103EB0000E4617469846002443463A463146284661
:103EC000FFF7E5FF2C894FF6F870044044F0070433
:103ED0004FF68F70044044F070042C81BDE8F081EF
:103EE000F0B504460D4616461F463B463246294667
:103EF0002046FFF7CCFF208940F480402081F0BDB0
:103F000082884FF68F731A40828082880A438280AB
:103F1000704702894FF6F8731A40028102890A43FA
:103F20000281704702894FF67F731A40028102892D
:103F30000A4302817047F0B50C4615461E46002123
:103F4000002200230189028B038C4FF6F877394059
:103F500021434FF6FC473A4040F201173A434FF6EF
:103F6000DD773B404FF6FF7707EA06172F433B43C9
:103F7000018102830384F0BD21B1828842F0800276
:103F8000828004E082884FF67F731A4082807047F7
:103F9000A0F850107047000010B50446FA4884425B
:103FA00008D101211020FFF700F900211020FFF7B0
:103FB000FCF857E0F548844209D101214804FFF795
:103FC000E3F800214FF40030FFF7DEF84AE0F04854
:103FD000844209D101218804FFF7D6F800214FF46B
:103FE0008020FFF7D1F83DE0EA48844209D1012161
:103FF000C804FFF7C9F800214FF40020FFF7C4F808
:1040000030E0E548844209D101210805FFF7BCF8FA
:1040100000214FF48010FFF7B7F823E0DF48844217
:1040200008D101212020FFF7C0F800212020FFF750
:10403000BCF817E0DA48844209D101218807FFF76C
:10404000A3F800214FF08040FFF79EF80AE0D54822
:10405000844207D101214005FFF796F80021600551
:10406000FFF792F810BD2DE9FF4705460E460024E4
:10407000A14600BFA046B08900B100BF2C8A24F43D
:104080004054F08804432C82AC8941F20C60844394
:10409000B08831890843718908430443AC81AC8AF4
:1040A00024F44074B0890443AC826846FEF7FDFEF8
:1040B000B548854202D0B948854202D1DDF80C905E
:1040C00001E0DDF80890A88900F4004040B109EB58
:1040D000C90000EB091031684900B0FBF1F707E0B7
:1040E00009EBC90000EB091031688900B0FBF1F75A
:1040F0006420B7FBF0F004012009642101FB107873
:10410000A88900F4004040B1322000EBC800B0FBA9
:10411000F1F000F00700044308E0322000EB081043
:104120006421B0FBF1F000F00F0004432C81BDE8E6
:10413000FF874FF41651016000218180C180018109
:104140000C21418100218181704710B50246002079
:10415000108A20F470600B884C8823438C8823439A
:10416000CC8823431843108210BD00210180418078
:104170008180C180704721B1828942F400528281DE
:1041800004E082894DF6FF731A4082817047028BEA
:1041900002F47F420283028B0A430283704721B1FB
:1041A000828942F40042828103E08289C2F30E02D6
:1041B0008281704721B1828A42F40062828204E0E7
:1041C000828A4FF2FF731A4082827047C1F308025D
:1041D0008280704701468888C0F308007047028AD1
:1041E0004FF6F0731A400282028A0A430282704735
:1041F00021B1828942F00202828104E082894FF675
:10420000FD731A408281704782894FF2FF731A4012
:10421000828182890A4382817047028A4FF6DF7366
:104220001A400282028A0A430282704721B1028A3E
:1042300042F48042028204E0028A4BF6FF731A4085
:1042400002827047818941F001018181704721B16B
:10425000828A42F00802828204E0828A4FF6F77373
:104260001A4082827047028BD2B20283028B42EAEA
:1042700001220283704721B1828A42F020028282A9
:1042800004E0828A4FF6DF731A408282704721B1C0
:10429000828A42F01002828204E0828A4FF6EF7333
:1042A0001A4082827047828A4FF6FB731A408282DC
:1042B000828A0A438282704721B1828A42F00202D6
:1042C000828204E0828A4FF6FD731A408282704730
:1042D0001AB1838A0B43838202E0838A8B438382F1
:1042E0007047F0B50346002400260025002040F664
:1042F0006A17B94200D100BF1846C1F3421401F059
:104300001F06012707FA06F5012C01D10C3004E045
:10431000022C01D1103000E014301AB107682F438D
:10432000076002E00768AF430760F0BD0246002067
:10433000B1F5007F00D100BF13880B400BB1012005
:1043400000E00020704701F40072B2F5007F00D158
:1043500000BFCA430280704770B5024600240023A4
:104360000025002040F66A16B14200D100BFC1F31B
:10437000421501F01F03012606FA03F3012D13D1A4
:104380009689334017E000000010014000440040CF
:1043900000480040004C0040005000400014014024
:1043A00000780040007C0040022D02D1168A334084
:1043B00001E0968A33400C12012606FA04F41688AE
:1043C000344013B10CB1012000E0002070BD10B5E5
:1043D0000022002340F66A14A14200D100BF0A1255
:1043E00001249440A3B2DC43048010BD10B5044600
:1043F0006FF00400FDF71CFCE11704EB5171C1F3F1
:10440000C701394A11701046007800EB4001C1EB3A
:10441000C0104FF6FF7101EAC0003449088010BD9A
:104420000146314A12784A434FF0E0235A61002294
:104430009A611A46126942F001021A6100BF4FF0F8
:10444000E022106900F001021AB100F48032002A63
:10445000F5D04FF0E022126922F001024FF0E02384
:104460001A6100229A6170470146204A12884A4325
:104470004FF0E0235A6100229A611A46126942F015
:1044800001021A6100BF4FF0E022106900F0010242
:104490001AB100F48032002AF5D04FF0E022126900
:1044A00022F001024FF0E0231A6100229A61704766
:1044B00070B504464FF4077094FBF0F0C6B24FF4A9
:1044C000077094FBF0F100FB114085B205E04FF45A
:1044D0000770FFF7C9FF701EC6B2002EF7D115B1E5
:1044E0002846FFF7C1FF70BD4400002046000020B1
:1044F000D94890ED001AD948D0ED001ABFEE002A35
:1045000012EE211AD64880ED001AD34890ED011A18
:10451000D248D0ED011ABFEE002A12EE211AD0487F
:1045200080ED011ACC4890ED021ACC48D0ED021A69
:10453000BFEE002A12EE211AC94880ED021A9FED43
:10454000C91AB0EE410A014691ED001ABDEEC11A3A
:1045500011EE100A002801DB014600E0414201EEA5
:10456000101AB8EEC11AB4EEC01AF1EE10FA11DD4D
:10457000BB4991ED001ABDEEC11A11EE100A0028D8
:1045800001DB014600E0414201EE101AB8EEC11A0B
:10459000B0EE410AB24991ED011ABDEEC11A11EE19
:1045A000100A002801DB014600E0414201EE101A2A
:1045B000B8EEC11AB4EEC01AF1EE10FA11DDA84936
:1045C00091ED011ABDEEC11A11EE100A002801DBAF
:1045D000014600E0414201EE101AB8EEC11AB0EEF9
:1045E000410A9F4991ED021ABDEEC11A11EE100A5F
:1045F000002801DB014600E0414201EE101AB8EE4E
:10460000C11AB4EEC01AF1EE10FA11DD944991ED21
:10461000021ABDEEC11A11EE100A002801DB014694
:1046200000E0414201EE101AB8EEC11AB0EE410AA4
:104630009FED8D1AB4EEC10AF1EE10FA16DD9FED72
:104640008A1AC1EE000A864890ED001A21EE201A5F
:1046500080ED001A90ED011A21EE201A80ED011A6A
:1046600090ED021A21EE201A80ED021A70477F4861
:1046700090ED031A7E48D0ED001A61EE211A9FEDED
:104680007D2A81EE821A7648D0ED001A31EE211A89
:1046900080ED001A754890ED031A7548D0ED001AA8
:1046A00021EE211ADFED731A81EE212A6C4890ED7C
:1046B000011A32EE011A80ED011A6C4890ED031ACE
:1046C0006B48D0ED001A21EE211A9FED6A2AC1EE47
:1046D000021A634890ED021A31EE811A80ED021A37
:1046E0009FED601AB0EE410A014691ED001ABDEE51
:1046F000C11A11EE100A002801DB014600E0414218
:1047000001EE101AB8EEC11AB4EEC01AF1EE10FAAA
:1047100011DD534991ED001ABDEEC11A11EE100AD8
:10472000002801DB014600E0414201EE101AB8EE1C
:10473000C11AB0EE410A4A4991ED011ABDEEC11A03
:1047400011EE100A002801DB014600E0414201EEB3
:10475000101AB8EEC11AB4EEC01AF1EE10FA11DD5B
:104760003F4991ED011ABDEEC11A11EE100A002861
:1047700001DB014600E0414201EE101AB8EEC11A19
:10478000B0EE410A364991ED021ABDEEC11A11EEA2
:10479000100A002801DB014600E0414201EE101A38
:1047A000B8EEC11AB4EEC01AF1EE10FA11DD2C49C0
:1047B00091ED021ABDEEC11A11EE100A002801DBBC
:1047C000014600E0414201EE101AB8EEC11AB0EE07
:1047D000410A9FED251AB4EEC10AF1EE10FA16DD7A
:1047E0009FED211AC1EE000A1D4890ED001A21EE3E
:1047F000201A80ED001A90ED011A21EE201A80EDAA
:10480000011A90ED021A21EE201A80ED021A70476B
:1048100010B5134B93ED020ABDEEC00A10EE103A2C
:104820001AB20F4B93ED010ABDEEC00A10EE103A1A
:1048300019B20B4B93ED000ABDEEC00A10EE103A10
:1048400018B201F01DF910BD10B500221146104636
:1048500001F016F910BD0000F4000020E80000206F
:104860000C010020000000000000A044980000207F
:104870004800002000002F4400BF704700BFB34A2B
:10488000128802F04002002AF9D0C2B2AF4B9A80DF
:10489000704710B586B0044601210846FEF7D6FBE6
:1048A00001211020FEF72CFC07220921A848FEF761
:1048B000BAF907220A21A648FEF7B5F94FF4C060FD
:1048C000049002208DF814008DF8150001208DF859
:1048D00016008DF8170004A99D48FEF719F90094F9
:1048E0000020ADF80400ADF80600ADF80800ADF802
:1048F0000C000C20ADF80A0069469448FFF7B3FBA2
:1049000001219248FFF737FC06B010BD10B588B002
:10491000044601210846FEF799FB01214804FEF7F1
:10492000DEFB072202218A48FEF77DF907220321D8
:104930008748FEF778F90C20069002208DF81C00BD
:104940008DF81D0001208DF81E008DF81F0006A9AE
:104950007F48FEF7DDF802940020ADF80C00ADF8BA
:104960000E00ADF81000ADF814000C20ADF81200E8
:1049700002A97848FFF777FB01217648FFF7FBFB98
:10498000012240F225517348FFF7ABFC26208DF839
:10499000040000208DF805008DF8060001208DF838
:1049A000070001A8FDF7F7F808B010BD10B52DED10
:1049B0000C8B40F225516748FFF7CEFC00287DD0D4
:1049C00020216448FFF703FD6248FFF703FC6249BA
:1049D000087062480078012871D108460078604963
:1049E000604A128888545F480088401C5D490880EE
:1049F00008460088182861DB0020088057490870A5
:104A0000574890ED000A584880ED020A544890ED4E
:104A1000030AFFEE000A20EE200A534880ED010A47
:104A20004F4890ED040A504880ED000A90ED020ACC
:104A300010EE101A084603F09FF841EC1D0B9FED95
:104A40004B0B53EC102B02F025FC41EC1C0BB0EE91
:104A50004C0AF0EE6C0A01F00FFEB0EE40BAF0EE38
:104A600060BA9FED440B53EC102B51EC1B0B02F082
:104A7000C3FD41EC190B3C4890ED000ADFED3F0A05
:104A800030EE600A10EE101A084603F075F841EC9B
:104A90001A0B53EC192B02F055FB41EC180B02F0EA
:104AA0001FFB31490860084690ED020A10EE101A0B
:104AB000084603F061F841EC1D0B01E043E033E0F0
:104AC0009FED2A0B53EC102B02F0E4FB41EC1C0B86
:104AD000B0EE4C0AF0EE6C0A01F032FEB0EE40BAD5
:104AE000F0EE60BA9FED230B53EC102B51EC1B0B37
:104AF00002F082FD41EC190B1B4890ED010A10EE0B
:104B0000101A084603F038F841EC1A0B53EC192B35
:104B100002F018FB41EC180B02F0E2FA124948606F
:104B20000120174908600EE0164800780D2806D1CC
:104B3000094800780A2802D101200849087006486F
:104B4000007810490870BDEC0C8B10BD00100140BE
:104B500000000240004400405700002058000020A0
:104B600024010020540000201801002012143FC628
:104B7000DCA54C4000000000004070400000824373
:104B8000500000205600002080ED000AC0ED010A10
:104B900080ED021AC0ED081A80ED092A7047000066
:104BA00080ED000AC0ED010A80ED021A704710B5D1
:104BB0002DED048B0446FB48006818B9FA480068DC
:104BC00000287CD094ED040A84ED050AF7480068BB
:104BD00000EB4000F64A02EB800090ED010AF54838
:104BE000D0ED010A30EE600A20EE000AEF480068BE
:104BF00000EB400002EB8000D0ED000AED4890EDA4
:104C0000001A70EEC10AE948006800EB400002EBB0
:104C1000800090ED001AE748D0ED001A31EE611ADD
:104C200000EE810A10EE101A084602F0A5FF41ECD2
:104C3000190BB0EE490AF0EE690A01F0E5FDB0EE9D
:104C4000408AF0EE608A51EC180B02F049FA2061BC
:104C500094ED060AD4ED040A30EE200A84ED060A2B
:104C600094ED040AD4ED050A30EE600A84ED070ADB
:104C700094ED060AD4ED090AB4EEE00AF1EE10FA5A
:104C800003DB94ED090A84ED060A94ED060AD4EDDF
:104C9000090ABFEE001A60EE810AB4EEE00AF1EEF6
:104CA00010FA07D894ED090AFFEE000A20EE200A58
:104CB00084ED060A94ED000AD4ED040A00E010E049
:104CC00020EE200AD4ED010A94ED061A00EE810AC6
:104CD000D4ED020A94ED071A00EE810A84ED030A6E
:104CE00098E0B2480068072804DC94ED080A84EDD7
:104CF000030A8FE094ED040A84ED050AAB480068CE
:104D000000EB4000AA4A02EB800090ED010ADFEDC3
:104D1000AA0A30EE200AA748D0ED010A30EE600A58
:104D200020EE000AA148006800EB400002EB800082
:104D3000D0ED000A9F4890ED001A70EEC10A9B4822
:104D4000006800EB400002EB800090ED001A9948EB
:104D5000D0ED001A31EE611A00EE810A10EE101A41
:104D6000084602F009FF41EC190BB0EE490AF0EEDB
:104D7000690A01F049FDB0EE408AF0EE608A51EC1C
:104D8000180B02F0ADF9206194ED060AD4ED040A87
:104D900030EE200A84ED060A94ED040AD4ED050AEB
:104DA00030EE600A84ED070A94ED060AD4ED090A94
:104DB000B4EEE00AF1EE10FA03DB94ED090A84ED9B
:104DC000060A94ED060AD4ED090ABFEE001A60EE59
:104DD000810AB4EEE00AF1EE10FA07D894ED090A60
:104DE000FFEE000A20EE200A84ED060A94ED000A88
:104DF000D4ED040A20EE200AD4ED010A94ED061A3F
:104E000000EE810AD4ED020A94ED071A00EE810A41
:104E100084ED030A94ED030AD4ED080AB4EEE00A27
:104E2000F1EE10FA03DB94ED080A84ED030A94ED29
:104E3000030AD4ED080ABFEE001A60EE810AB4EE50
:104E4000E00AF1EE10FA07D894ED080AFFEE000A26
:104E500020EE200A84ED030ABDEC048B10BD10B5D2
:104E60002DED068B5148006800EB4000504901EBE6
:104E7000800090ED000A4F48D0ED000A30EE600A45
:104E8000B5EEC00AF1EE10FA37DD4848006800EBD5
:104E9000400001EB800090ED010A4648D0ED010A88
:104EA00030EE600A4148006800EB400001EB8000F2
:104EB000D0ED000A3F4890ED001A70EEC10A80EE76
:104EC000201A11EE104A204602F056FE41EC1A0B51
:104ED000B0EE4A0AF0EE6A0A01F062FAB0EE409AC9
:104EE000F0EE609A51EC190B02F0FAF800EE100A9D
:104EF000DFED320A20EE208AA9E02C48006800EBA2
:104F000040002B4901EB800090ED000A2948D0EDCC
:104F1000000A30EE600AB5EEC00AF1EE10FA56D281
:104F20002248006800EB400001EB800090ED010A90
:104F30002048D0ED010A30EE600A1C48006800EB02
:104F4000400001EB8000D0ED000A1A4890ED001AF5
:104F500070EEC10A80EE201A11EE104A204602F0CF
:104F60000BFE41EC1A0BB0EE4A0AF0EE6A0A01F0B1
:104F700017FAB0EE409AF0EE609A51EC190B02F07D
:104F8000AFF800EE100ADFED0D0A60EE208AF5EEB4
:104F9000C08AF1EE10FA15DD9FED090A38EEC08ADD
:104FA00055E0000018000020140000205C000020E4
:104FB0003C0100201801002000A01B45E62E6542A0
:104FC000000034431FED020A38EE808A3FE0FE48BD
:104FD000006800EB4000FD4901EB800090ED000A05
:104FE000FB48D0ED000A30EE600AB5EEC00AF1EEE3
:104FF00010FA2CD1F448006800EB400001EB80006F
:1050000090ED010AF248D0ED010A30EE600AB5EEEB
:10501000C00AF1EE10FA02DD9FEDEE8A17E0EA48D1
:10502000006800EB4000E94901EB800090ED010AC7
:10503000E748D0ED010A30EE600AB5EEC00AF1EEA5
:1050400010FA02D29FEDE48A01E09FEDE48AE04885
:1050500090ED020A38EE400ABDEC068B10BD10B58B
:105060002DED0E8BDA4890ED000ADFEDDD0A30EE13
:10507000600A10EE101A084602F07EFD41EC1E0B8D
:105080009FEDD80B53EC102B02F0B6FA41EC1D0B40
:105090009FEDD60B53EC102B02F0FCF841EC1C0BEF
:1050A000B0EE4C0AF0EE6C0A01F0E6FAB0EE40BA4F
:1050B000F0EE60BA9FEDCF0B53EC102B51EC1B0BB5
:1050C00002F09AFA41EC1A0BB0EE4A0AF0EE6A0AC4
:1050D00001F066F9B0EE409AF0EE609A51EC190BCF
:1050E00001F0FEFF00EE100A5FED4C0A20EE200AF0
:1050F000B0EE408AB64890ED000ADFEDC00AB4EE8B
:10510000E00AF1EE10FA03DD9FEDB40AB0EE408A3A
:10511000B0EE480ABDEC0E8B10BD00B52DED108B26
:1051200085B0AB4890ED010A10EE101A084602F067
:1051300023FD41EC1C0BA64890ED000ADFEDB00A00
:1051400030EE600ADFEDAF0A30EE200A10EE101AE2
:10515000084602F011FD9FEDA30B53EC102BCDE997
:1051600000019DED000B51EC100B02F045FA9FED94
:105170009F0B53EC102BCDE902019DED020B51EC7E
:10518000100B02F087F841EC1F0BB0EE4F0AF0EE67
:105190006F0A01F0D5FAB0EE40EAF0EE60EA9FED5A
:1051A0009A0B53EC102B51EC1E0B02F025FA41EC3C
:1051B0001D0B53EC1C2B02F0F5FB41EC1B0B9FED80
:1051C000940B53EC102B02F0EDFB41EC1A0B9FED0E
:1051D000920B53EC102B02F05DF841EC190BB0EE82
:1051E000490AF0EE690A01F0DBF8B0EE408AF0EE11
:1051F000608A51EC180B01F073FF00EE100A5FEDAE
:10520000910A20EE200A8DED040A7148D0ED020AC1
:105210009DED040A30EE600A05B0BDEC108B00BDB8
:10522000B0EE401A6A48D0ED011A6748006800EBFA
:105230004000664901EB800090ED012A71EEC21A30
:1052400061EE811AB0EE610AB4EEE00AF1EE10FAF6
:1052500001DDB0EE600AFFEE001A60EEA11AF4EE76
:10526000C01AF1EE10FA05DDFFEE001A60EEA11A89
:10527000B0EE610AFDEEC01A11EE900A002801DBC3
:10528000014600E041420A2903DCDFED541AB0EE8A
:10529000610AB0EE002AC0EE021A614890ED002AC1
:1052A00072EE611AC0ED001AF0EE001A80EE212AAB
:1052B000D0ED021A71EEC21AC0ED021AD0ED011A39
:1052C00071EE801AC0ED011A704710B52DED108BEC
:1052D0000446B0EE408A18EE100A02F04DFC41EC94
:1052E0001A0B9FED500B53EC102B01F0D3FF41EC48
:1052F000190B01F0F5FE08EE100A18EE100A02F084
:105300003BFC41EC1D0BB0EE4D0AF0EE6D0A01F0D6
:1053100017FAB0EE40CAF0EE60CA9FED440B53ECB2
:10532000102B51EC1C0B01F0B5FF41EC1A0B18EEE1
:10533000100A02F021FC41EC1E0BB0EE4E0AF0EE1A
:105340006E0A01F099F9B0EE40DAF0EE60DA9FED06
:10535000390B53EC102B51EC1D0B02F04DF941ECC5
:105360001C0B9FED320B53EC102B01F093FF41EC23
:105370001B0B53EC1A2B01F0E5FE41EC190B01F06D
:10538000AFFE00EE100AD4ED030ABFEE001A60EE85
:10539000810A20EE200A294880ED000A18EE100A42
:1053A00002F0EAFB41EC1C0BB0EE4C0AF0EE6C0A8A
:1053B00001F0C6F9B0EE40AAF0EE60AA94ED030A3F
:1053C00010EE101A08463BE05C0000203C01002073
:1053D000180100200000B4420000B4C20000000028
:1053E000000011441F85EB51B81E09400000000069
:1053F00000709740333333333333E3BF0050874576
:1054000000803B44000048430000000000E075C0FD
:105410000000000000A88640000000000000694075
:105420000C01002012143FC6DCA54C400000000017
:105430000000004083C0CAA145B6FB3FE800002041
:1054400002F09AFB41EC1B0B53EC1A2B02F0D4F840
:1054500041EC190B01F044FEFD49486018EE100ABA
:1054600002F08AFB41EC1D0BB0EE4D0AF0EE6D0A26
:1054700001F066F9B0EE40CAF0EE60CA1FED150B00
:1054800053EC102B51EC1C0B01F004FF41EC1A0BF8
:1054900018EE100A02F070FB41EC1F0BB0EE4F0A41
:1054A000F0EE6F0A01F0E8F8B0EE40EAF0EE60EAE4
:1054B0009FEDE80B53EC102B51EC1E0B02F09CF807
:1054C00041EC1D0B1FED250B53EC102B02F094F853
:1054D00041EC1C0B1FED2B0B53EC102B01F0DAFEF3
:1054E00041EC1B0B53EC1A2B01F02CFE41EC190B79
:1054F00001F0F6FD00EE100AD4ED030ABFEE001A2B
:1055000060EE810A20EE200AD14880ED020ABDEC4F
:10551000108B10BD1FED4F1AF0EE410ACF4991EDEF
:10552000001ABDEEC11A11EE100A002801DB014677
:1055300000E0414201EE101AB8EEC11AB4EEE01AD2
:10554000F1EE10FA11DDC54991ED001ABDEEC11A58
:1055500011EE100A002801DB014600E0414201EE95
:10556000101AB8EEC11AF0EE410ABC4991ED011AC9
:10557000BDEEC11A11EE100A002801DB014600E061
:10558000414201EE101AB8EEC11AB4EEE01AF1EE83
:1055900010FA11DDB14991ED011ABDEEC11A11EEFB
:1055A000100A002801DB014600E0414201EE101A1A
:1055B000B8EEC11AF0EE410AA84991ED021ABDEE0B
:1055C000C11A11EE100A002801DB014600E0414239
:1055D00001EE101AB8EEC11AB4EEE01AF1EE10FAAC
:1055E00011DD9E4991ED021ABDEEC11A11EE100AAD
:1055F000002801DB014600E0414201EE101AB8EE3E
:10560000C11AF0EE410A96480068F0B19FED951A74
:10561000F4EEC10AF1EE10FA51DD9FED921A81EE1F
:10562000200A8E4890ED001A21EE001A80ED001A33
:1056300090ED011A21EE001A80ED011A90ED021A88
:1056400021EE001A80ED021A39E087480068082828
:105650001ED19FED841AF4EEC10AF1EE10FA2EDD90
:105660009FED801A81EE200A7C4890ED001A21EE11
:10567000001A80ED001A90ED011A21EE001A80ED5B
:10568000011A90ED021A21EE001A80ED021A16E0BE
:105690009FED741A81EE200A704890ED001A21EEF9
:1056A000001A80ED001A90ED011A21EE001A80ED2B
:1056B000011A90ED021A21EE001A80ED021A7047CD
:1056C000D0ED040AC0ED050A6849D1ED020A70EE7A
:1056D000600AC0ED040AD0ED040A9FED651AF4EEED
:1056E000C10AF1EE10FA08DDD0ED040A9FED611A4F
:1056F00070EEC10AC0ED040A19E0D0ED040A9FED76
:105700005E1AF4EEC10AF1EE10FA08D2D0ED040AE6
:105710009FED581A70EE810AC0ED040A07E0D0ED43
:10572000040A90ED051A70EEC10AC0ED070AD0ED2B
:10573000060A90ED041A70EE810AC0ED060AD0ED5B
:10574000060A90ED091AF4EEC10AF1EE10FA03DB35
:10575000D0ED090AC0ED060AD0ED060A90ED091A4F
:10576000FFEE001A21EE211AF4EEC10AF1EE10FA52
:1057700007D8D0ED090ABFEE001A60EE810AC0ED2D
:10578000060AD0ED000A90ED041A60EE810A90ED51
:10579000011AD0ED061A41EE210A90ED021AD0ED61
:1057A000071A41EE210AC0ED030AD0ED030A90ED7D
:1057B000081AF4EEC10AF1EE10FA03DBD0ED080A84
:1057C000C0ED030AD0ED030A90ED081AFFEE001AAF
:1057D00021EE211AF4EEC10AF1EE10FA07D8D0ED4D
:1057E000080ABFEE001A60EE810AC0ED030AD0ED90
:1057F000030A2249C1ED020AC1ED010AC1ED000A06
:1058000070471948006800EB40001D4901EB80001B
:10581000D0ED010A154890ED011A70EEC10AB0EE04
:10582000001A60EE810AB0EE600ADFED160AB4EEEF
:10583000E00AF1EE10FA03DDDFED120AB0EE600AC5
:10584000DFED110AB4EEE00AF1EE10FA22D21DE00B
:10585000E8000020000000000000F0BF0C01002064
:105860001400002000002F445C00002018010020DC
:10587000000034430000B443000034C3F4000020AF
:105880003C01002000004843000048C35FED020ACD
:10589000B0EE600AF0EE000A80EE201A0B48D0ED60
:1058A000000A70EEC10AC0ED000AF0EE000A80EEB8
:1058B000201AD0ED020A70EEC10AC0ED020AD0ED46
:1058C000010A70EE800AC0ED010A70470C01002049
:1058D00010B5002106E0282200BF131EA2F101022C
:1058E000FBD1491C8142F6D310BD00B58BB001211C
:1058F0000846FDF7ABFB01214806FDF7F0FB092246
:105900000C21A548FDF78FF909220B21A248FDF7CC
:105910008AF94FF4C050029002208DF80C0000204C
:105920008DF80E0003208DF80D0001208DF80F007A
:1059300002A99948FDF7ECF813208DF80400012026
:105940008DF805008DF806008DF8070001A8FCF71A
:1059500022F99248FCF78AF908A8FCF7ABFA002074
:105960008DF826008DF827008DF828008DF8290085
:105970008DF82A0001208DF82B0000208DF82200E0
:105980008DF8230008208DF8240003208DF82500D1
:10599000ADF8200008A98148FCF781F900208DF8B6
:1059A0001A008DF81B0001208DF81C000020ADF8B6
:1059B0001000ADF81200ADF81400ADF81600ADF807
:1059C000180001208DF81D0004A8FCF7F2F901224F
:1059D00002217248FCF7ECFC012211466F48FCF7EB
:1059E000E7FC0BB000BD10B5FFF77FFF4FF4FA7076
:1059F000FEF75EFD10BD10B501216848FCF740FDC3
:105A000030B101216548FCF7D6FD012064490870DA
:105A100010BD2DE9F04186B007460D4690460024A2
:105A2000CDF80480002002908DF80C008DF80D0058
:105A30008DF80E5000BF05E0395D0DF10F000155E6
:105A4000601C84B2AC42F7DB01A95448FCF7A0FA11
:105A50000646002401E0601C84B231464F48FCF742
:105A60002FFB18B940F6FF708442F4DB40F6FF705C
:105A7000844203DB012006B0BDE8F0810020FAE794
:105A800070B586B004460D461646122001900020DF
:105A90008DF80C008DF80D0008208DF80E00200AFE
:105AA0008DF80F008DF81040290A8DF811108DF82F
:105AB0001250310A8DF813108DF814600020384907
:105AC00008703849086001A93448FCF761FA0020E1
:105AD000354908600CE00A20FEF7A2FC3248006855
